{
  "_format": "hh-sol-artifact-1",
  "contractName": "AICelebrityPlatform",
  "sourceName": "contracts/AICelebrityPlatform.sol",
  "abi": [
    {
      "inputs": [
        {
          "internalType": "uint256",
          "name": "_feeAmount",
          "type": "uint256"
        }
      ],
      "stateMutability": "nonpayable",
      "type": "constructor"
    },
    {
      "anonymous": false,
      "inputs": [
        {
          "indexed": true,
          "internalType": "uint256",
          "name": "celebId",
          "type": "uint256"
        },
        {
          "indexed": false,
          "internalType": "string",
          "name": "name",
          "type": "string"
        },
        {
          "indexed": false,
          "internalType": "address",
          "name": "owner",
          "type": "address"
        },
        {
          "indexed": false,
          "internalType": "string",
          "name": "personality1",
          "type": "string"
        },
        {
          "indexed": false,
          "internalType": "string",
          "name": "personality2",
          "type": "string"
        },
        {
          "indexed": false,
          "internalType": "string",
          "name": "personality3",
          "type": "string"
        },
        {
          "indexed": false,
          "internalType": "string",
          "name": "personality4",
          "type": "string"
        },
        {
          "indexed": false,
          "internalType": "string",
          "name": "description",
          "type": "string"
        }
      ],
      "name": "CelebCreated",
      "type": "event"
    },
    {
      "anonymous": false,
      "inputs": [
        {
          "indexed": true,
          "internalType": "address",
          "name": "user",
          "type": "address"
        },
        {
          "indexed": true,
          "internalType": "uint256",
          "name": "celebId",
          "type": "uint256"
        },
        {
          "indexed": false,
          "internalType": "uint256",
          "name": "amount",
          "type": "uint256"
        }
      ],
      "name": "FeePaid",
      "type": "event"
    },
    {
      "anonymous": false,
      "inputs": [
        {
          "indexed": true,
          "internalType": "uint256",
          "name": "celebId",
          "type": "uint256"
        },
        {
          "indexed": true,
          "internalType": "address",
          "name": "owner",
          "type": "address"
        },
        {
          "indexed": false,
          "internalType": "uint256",
          "name": "amount",
          "type": "uint256"
        }
      ],
      "name": "Withdrawal",
      "type": "event"
    },
    {
      "stateMutability": "payable",
      "type": "fallback"
    },
    {
      "inputs": [
        {
          "internalType": "uint256",
          "name": "",
          "type": "uint256"
        }
      ],
      "name": "celebs",
      "outputs": [
        {
          "internalType": "string",
          "name": "name",
          "type": "string"
        },
        {
          "internalType": "address",
          "name": "owner",
          "type": "address"
        },
        {
          "internalType": "string",
          "name": "personality1",
          "type": "string"
        },
        {
          "internalType": "string",
          "name": "personality2",
          "type": "string"
        },
        {
          "internalType": "string",
          "name": "personality3",
          "type": "string"
        },
        {
          "internalType": "string",
          "name": "personality4",
          "type": "string"
        },
        {
          "internalType": "string",
          "name": "description",
          "type": "string"
        },
        {
          "internalType": "uint256",
          "name": "etherEarned",
          "type": "uint256"
        },
        {
          "internalType": "bool",
          "name": "personality1Enabled",
          "type": "bool"
        },
        {
          "internalType": "bool",
          "name": "personality2Enabled",
          "type": "bool"
        },
        {
          "internalType": "bool",
          "name": "personality3Enabled",
          "type": "bool"
        },
        {
          "internalType": "bool",
          "name": "personality4Enabled",
          "type": "bool"
        }
      ],
      "stateMutability": "view",
      "type": "function"
    },
    {
      "inputs": [],
      "name": "celebsCount",
      "outputs": [
        {
          "internalType": "uint256",
          "name": "",
          "type": "uint256"
        }
      ],
      "stateMutability": "view",
      "type": "function"
    },
    {
      "inputs": [
        {
          "internalType": "string",
          "name": "_name",
          "type": "string"
        },
        {
          "internalType": "string",
          "name": "_personality1",
          "type": "string"
        },
        {
          "internalType": "string",
          "name": "_personality2",
          "type": "string"
        },
        {
          "internalType": "string",
          "name": "_personality3",
          "type": "string"
        },
        {
          "internalType": "string",
          "name": "_personality4",
          "type": "string"
        },
        {
          "internalType": "string",
          "name": "_description",
          "type": "string"
        }
      ],
      "name": "createCeleb",
      "outputs": [],
      "stateMutability": "nonpayable",
      "type": "function"
    },
    {
      "inputs": [
        {
          "internalType": "uint256",
          "name": "_index",
          "type": "uint256"
        },
        {
          "internalType": "uint256",
          "name": "_celebId",
          "type": "uint256"
        }
      ],
      "name": "disablePersonality",
      "outputs": [],
      "stateMutability": "nonpayable",
      "type": "function"
    },
    {
      "inputs": [
        {
          "internalType": "uint256",
          "name": "_index",
          "type": "uint256"
        },
        {
          "internalType": "uint256",
          "name": "_celebId",
          "type": "uint256"
        }
      ],
      "name": "enablePersonality",
      "outputs": [],
      "stateMutability": "nonpayable",
      "type": "function"
    },
    {
      "inputs": [],
      "name": "feeAmount",
      "outputs": [
        {
          "internalType": "uint256",
          "name": "",
          "type": "uint256"
        }
      ],
      "stateMutability": "view",
      "type": "function"
    },
    {
      "inputs": [
        {
          "internalType": "address",
          "name": "_user",
          "type": "address"
        }
      ],
      "name": "getUserCelebCount",
      "outputs": [
        {
          "internalType": "uint256",
          "name": "",
          "type": "uint256"
        }
      ],
      "stateMutability": "view",
      "type": "function"
    },
    {
      "inputs": [
        {
          "internalType": "address",
          "name": "_user",
          "type": "address"
        }
      ],
      "name": "getUserCelebs",
      "outputs": [
        {
          "components": [
            {
              "internalType": "string",
              "name": "name",
              "type": "string"
            },
            {
              "internalType": "address",
              "name": "owner",
              "type": "address"
            },
            {
              "internalType": "string",
              "name": "personality1",
              "type": "string"
            },
            {
              "internalType": "string",
              "name": "personality2",
              "type": "string"
            },
            {
              "internalType": "string",
              "name": "personality3",
              "type": "string"
            },
            {
              "internalType": "string",
              "name": "personality4",
              "type": "string"
            },
            {
              "internalType": "string",
              "name": "description",
              "type": "string"
            },
            {
              "internalType": "uint256",
              "name": "etherEarned",
              "type": "uint256"
            },
            {
              "internalType": "bool",
              "name": "personality1Enabled",
              "type": "bool"
            },
            {
              "internalType": "bool",
              "name": "personality2Enabled",
              "type": "bool"
            },
            {
              "internalType": "bool",
              "name": "personality3Enabled",
              "type": "bool"
            },
            {
              "internalType": "bool",
              "name": "personality4Enabled",
              "type": "bool"
            }
          ],
          "internalType": "struct AICelebrityPlatform.AICeleb[]",
          "name": "",
          "type": "tuple[]"
        }
      ],
      "stateMutability": "view",
      "type": "function"
    },
    {
      "inputs": [
        {
          "internalType": "uint256",
          "name": "_celebId",
          "type": "uint256"
        }
      ],
      "name": "payFee",
      "outputs": [],
      "stateMutability": "payable",
      "type": "function"
    },
    {
      "inputs": [
        {
          "internalType": "uint256",
          "name": "_celebId",
          "type": "uint256"
        }
      ],
      "name": "withdraw",
      "outputs": [],
      "stateMutability": "nonpayable",
      "type": "function"
    },
    {
      "stateMutability": "payable",
      "type": "receive"
    }
  ],
  "bytecode": "0x6080604052600180553480156200001557600080fd5b50604051620024493803806200244983398181016040528101906200003b919062000091565b60016000819055508060048190555050620000c3565b600080fd5b6000819050919050565b6200006b8162000056565b81146200007757600080fd5b50565b6000815190506200008b8162000060565b92915050565b600060208284031215620000aa57620000a962000051565b5b6000620000ba848285016200007a565b91505092915050565b61237680620000d36000396000f3fe6080604052600436106100955760003560e01c806375bbac711161005957806375bbac711461018e57806391dc9c88146101cb578063abf6b595146101f4578063b0452fce1461021d578063d289ade21461025a5761009c565b80630b892e3f1461009e5780632e1a7d4d146100e657806344a0e4951461010f57806369e15404146101385780636b9b1b70146101635761009c565b3661009c57005b005b3480156100aa57600080fd5b506100c560048036038101906100c09190611556565b610276565b6040516100dd9c9b9a9998979695949392919061167e565b60405180910390f35b3480156100f257600080fd5b5061010d60048036038101906101089190611556565b61065a565b005b34801561011b57600080fd5b5061013660048036038101906101319190611762565b6107df565b005b34801561014457600080fd5b5061014d6108c9565b60405161015a91906117a2565b60405180910390f35b34801561016f57600080fd5b506101786108cf565b60405161018591906117a2565b60405180910390f35b34801561019a57600080fd5b506101b560048036038101906101b091906117e9565b6108d5565b6040516101c291906117a2565b60405180910390f35b3480156101d757600080fd5b506101f260048036038101906101ed9190611762565b610921565b005b34801561020057600080fd5b5061021b6004803603810190610216919061194b565b610a0b565b005b34801561022957600080fd5b50610244600480360381019061023f91906117e9565b610e21565b6040516102519190611ce0565b60405180910390f35b610274600480360381019061026f9190611556565b6112f8565b005b600260205280600052604060002060009150905080600001805461029990611d31565b80601f01602080910402602001604051908101604052809291908181526020018280546102c590611d31565b80156103125780601f106102e757610100808354040283529160200191610312565b820191906000526020600020905b8154815290600101906020018083116102f557829003601f168201915b5050505050908060010160009054906101000a900473ffffffffffffffffffffffffffffffffffffffff169080600201805461034d90611d31565b80601f016020809104026020016040519081016040528092919081815260200182805461037990611d31565b80156103c65780601f1061039b576101008083540402835291602001916103c6565b820191906000526020600020905b8154815290600101906020018083116103a957829003601f168201915b5050505050908060030180546103db90611d31565b80601f016020809104026020016040519081016040528092919081815260200182805461040790611d31565b80156104545780601f1061042957610100808354040283529160200191610454565b820191906000526020600020905b81548152906001019060200180831161043757829003601f168201915b50505050509080600401805461046990611d31565b80601f016020809104026020016040519081016040528092919081815260200182805461049590611d31565b80156104e25780601f106104b7576101008083540402835291602001916104e2565b820191906000526020600020905b8154815290600101906020018083116104c557829003601f168201915b5050505050908060050180546104f790611d31565b80601f016020809104026020016040519081016040528092919081815260200182805461052390611d31565b80156105705780601f1061054557610100808354040283529160200191610570565b820191906000526020600020905b81548152906001019060200180831161055357829003601f168201915b50505050509080600601805461058590611d31565b80601f01602080910402602001604051908101604052809291908181526020018280546105b190611d31565b80156105fe5780601f106105d3576101008083540402835291602001916105fe565b820191906000526020600020905b8154815290600101906020018083116105e157829003601f168201915b5050505050908060070154908060080160009054906101000a900460ff16908060080160019054906101000a900460ff16908060080160029054906101000a900460ff16908060080160039054906101000a900460ff1690508c565b6106626114b3565b6002600082815260200190815260200160002060010160009054906101000a900473ffffffffffffffffffffffffffffffffffffffff1673ffffffffffffffffffffffffffffffffffffffff163373ffffffffffffffffffffffffffffffffffffffff1614610706576040517f08c379a00000000000000000000000000000000000000000000000000000000081526004016106fd90611dae565b60405180910390fd5b600060026000838152602001908152602001600020600701549050600060026000848152602001908152602001600020600701819055503373ffffffffffffffffffffffffffffffffffffffff166108fc829081150290604051600060405180830381858888f19350505050158015610783573d6000803e3d6000fd5b503373ffffffffffffffffffffffffffffffffffffffff16827f37e8063b72a944a76de602f32b82fd8c2a1c6f99564c727ffaf913c7762cd420836040516107cb91906117a2565b60405180910390a3506107dc611502565b50565b6001820361081b5760006002600083815260200190815260200160002060080160006101000a81548160ff0219169083151502179055506108c5565b600282036108575760006002600083815260200190815260200160002060080160016101000a81548160ff0219169083151502179055506108c4565b600382036108935760006002600083815260200190815260200160002060080160026101000a81548160ff0219169083151502179055506108c3565b60006002600083815260200190815260200160002060080160036101000a81548160ff0219169083151502179055505b5b5b5050565b60045481565b60015481565b6000600360008373ffffffffffffffffffffffffffffffffffffffff1673ffffffffffffffffffffffffffffffffffffffff168152602001908152602001600020805490509050919050565b6001820361095d5760016002600083815260200190815260200160002060080160006101000a81548160ff021916908315150217905550610a07565b600282036109995760016002600083815260200190815260200160002060080160016101000a81548160ff021916908315150217905550610a06565b600382036109d55760016002600083815260200190815260200160002060080160026101000a81548160ff021916908315150217905550610a05565b60016002600083815260200190815260200160002060080160036101000a81548160ff0219169083151502179055505b5b5b5050565b60006040518061018001604052808881526020013373ffffffffffffffffffffffffffffffffffffffff16815260200187815260200186815260200185815260200184815260200183815260200160008152602001600015158152602001600015158152602001600015158152602001600015158152509050600360003373ffffffffffffffffffffffffffffffffffffffff1673ffffffffffffffffffffffffffffffffffffffff1681526020019081526020016000208190806001815401808255809150506001900390600052602060002090600902016000909190919091506000820151816000019081610b029190611f7a565b5060208201518160010160006101000a81548173ffffffffffffffffffffffffffffffffffffffff021916908373ffffffffffffffffffffffffffffffffffffffff1602179055506040820151816002019081610b5f9190611f7a565b506060820151816003019081610b759190611f7a565b506080820151816004019081610b8b9190611f7a565b5060a0820151816005019081610ba19190611f7a565b5060c0820151816006019081610bb79190611f7a565b5060e082015181600701556101008201518160080160006101000a81548160ff0219169083151502179055506101208201518160080160016101000a81548160ff0219169083151502179055506101408201518160080160026101000a81548160ff0219169083151502179055506101608201518160080160036101000a81548160ff0219169083151502179055505050806002600060015481526020019081526020016000206000820151816000019081610c739190611f7a565b5060208201518160010160006101000a81548173ffffffffffffffffffffffffffffffffffffffff021916908373ffffffffffffffffffffffffffffffffffffffff1602179055506040820151816002019081610cd09190611f7a565b506060820151816003019081610ce69190611f7a565b506080820151816004019081610cfc9190611f7a565b5060a0820151816005019081610d129190611f7a565b5060c0820151816006019081610d289190611f7a565b5060e082015181600701556101008201518160080160006101000a81548160ff0219169083151502179055506101208201518160080160016101000a81548160ff0219169083151502179055506101408201518160080160026101000a81548160ff0219169083151502179055506101608201518160080160036101000a81548160ff0219169083151502179055509050506001547f0fdbe29717bc885c81756c4014249a6f176cba9d50673bba951ffe713091d4e488338989898989604051610df8979695949392919061204c565b60405180910390a260016000815480929190610e1390612114565b919050555050505050505050565b6060600360008373ffffffffffffffffffffffffffffffffffffffff1673ffffffffffffffffffffffffffffffffffffffff168152602001908152602001600020805480602002602001604051908101604052809291908181526020016000905b828210156112ed578382906000526020600020906009020160405180610180016040529081600082018054610eb690611d31565b80601f0160208091040260200160405190810160405280929190818152602001828054610ee290611d31565b8015610f2f5780601f10610f0457610100808354040283529160200191610f2f565b820191906000526020600020905b815481529060010190602001808311610f1257829003601f168201915b505050505081526020016001820160009054906101000a900473ffffffffffffffffffffffffffffffffffffffff1673ffffffffffffffffffffffffffffffffffffffff1673ffffffffffffffffffffffffffffffffffffffff168152602001600282018054610f9e90611d31565b80601f0160208091040260200160405190810160405280929190818152602001828054610fca90611d31565b80156110175780601f10610fec57610100808354040283529160200191611017565b820191906000526020600020905b815481529060010190602001808311610ffa57829003601f168201915b5050505050815260200160038201805461103090611d31565b80601f016020809104026020016040519081016040528092919081815260200182805461105c90611d31565b80156110a95780601f1061107e576101008083540402835291602001916110a9565b820191906000526020600020905b81548152906001019060200180831161108c57829003601f168201915b505050505081526020016004820180546110c290611d31565b80601f01602080910402602001604051908101604052809291908181526020018280546110ee90611d31565b801561113b5780601f106111105761010080835404028352916020019161113b565b820191906000526020600020905b81548152906001019060200180831161111e57829003601f168201915b5050505050815260200160058201805461115490611d31565b80601f016020809104026020016040519081016040528092919081815260200182805461118090611d31565b80156111cd5780601f106111a2576101008083540402835291602001916111cd565b820191906000526020600020905b8154815290600101906020018083116111b057829003601f168201915b505050505081526020016006820180546111e690611d31565b80601f016020809104026020016040519081016040528092919081815260200182805461121290611d31565b801561125f5780601f106112345761010080835404028352916020019161125f565b820191906000526020600020905b81548152906001019060200180831161124257829003601f168201915b50505050508152602001600782015481526020016008820160009054906101000a900460ff161515151581526020016008820160019054906101000a900460ff161515151581526020016008820160029054906101000a900460ff161515151581526020016008820160039054906101000a900460ff16151515158152505081526020019060010190610e82565b505050509050919050565b6113006114b3565b6001548110611344576040517f08c379a000000000000000000000000000000000000000000000000000000000815260040161133b906121a8565b60405180910390fd5b6002600082815260200190815260200160002060010160009054906101000a900473ffffffffffffffffffffffffffffffffffffffff1673ffffffffffffffffffffffffffffffffffffffff163373ffffffffffffffffffffffffffffffffffffffff16036113e8576040517f08c379a00000000000000000000000000000000000000000000000000000000081526004016113df90612214565b60405180910390fd5b600454341461142c576040517f08c379a000000000000000000000000000000000000000000000000000000000815260040161142390612280565b60405180910390fd5b3460026000838152602001908152602001600020600701600082825461145291906122a0565b92505081905550803373ffffffffffffffffffffffffffffffffffffffff167ff3816d9cce3442fbfe3e4d36ad047b3362efdc9f2e283e77b0ecd768a0a01ef2346040516114a091906117a2565b60405180910390a36114b0611502565b50565b6002600054036114f8576040517f08c379a00000000000000000000000000000000000000000000000000000000081526004016114ef90612320565b60405180910390fd5b6002600081905550565b6001600081905550565b6000604051905090565b600080fd5b600080fd5b6000819050919050565b61153381611520565b811461153e57600080fd5b50565b6000813590506115508161152a565b92915050565b60006020828403121561156c5761156b611516565b5b600061157a84828501611541565b91505092915050565b600081519050919050565b600082825260208201905092915050565b60005b838110156115bd5780820151818401526020810190506115a2565b60008484015250505050565b6000601f19601f8301169050919050565b60006115e582611583565b6115ef818561158e565b93506115ff81856020860161159f565b611608816115c9565b840191505092915050565b600073ffffffffffffffffffffffffffffffffffffffff82169050919050565b600061163e82611613565b9050919050565b61164e81611633565b82525050565b61165d81611520565b82525050565b60008115159050919050565b61167881611663565b82525050565b6000610180820190508181036000830152611699818f6115da565b90506116a8602083018e611645565b81810360408301526116ba818d6115da565b905081810360608301526116ce818c6115da565b905081810360808301526116e2818b6115da565b905081810360a08301526116f6818a6115da565b905081810360c083015261170a81896115da565b905061171960e0830188611654565b61172761010083018761166f565b61173561012083018661166f565b61174361014083018561166f565b61175161016083018461166f565b9d9c50505050505050505050505050565b6000806040838503121561177957611778611516565b5b600061178785828601611541565b925050602061179885828601611541565b9150509250929050565b60006020820190506117b76000830184611654565b92915050565b6117c681611633565b81146117d157600080fd5b50565b6000813590506117e3816117bd565b92915050565b6000602082840312156117ff576117fe611516565b5b600061180d848285016117d4565b91505092915050565b600080fd5b600080fd5b7f4e487b7100000000000000000000000000000000000000000000000000000000600052604160045260246000fd5b611858826115c9565b810181811067ffffffffffffffff8211171561187757611876611820565b5b80604052505050565b600061188a61150c565b9050611896828261184f565b919050565b600067ffffffffffffffff8211156118b6576118b5611820565b5b6118bf826115c9565b9050602081019050919050565b82818337600083830152505050565b60006118ee6118e98461189b565b611880565b90508281526020810184848401111561190a5761190961181b565b5b6119158482856118cc565b509392505050565b600082601f83011261193257611931611816565b5b81356119428482602086016118db565b91505092915050565b60008060008060008060c0878903121561196857611967611516565b5b600087013567ffffffffffffffff8111156119865761198561151b565b5b61199289828a0161191d565b965050602087013567ffffffffffffffff8111156119b3576119b261151b565b5b6119bf89828a0161191d565b955050604087013567ffffffffffffffff8111156119e0576119df61151b565b5b6119ec89828a0161191d565b945050606087013567ffffffffffffffff811115611a0d57611a0c61151b565b5b611a1989828a0161191d565b935050608087013567ffffffffffffffff811115611a3a57611a3961151b565b5b611a4689828a0161191d565b92505060a087013567ffffffffffffffff811115611a6757611a6661151b565b5b611a7389828a0161191d565b9150509295509295509295565b600081519050919050565b600082825260208201905092915050565b6000819050602082019050919050565b600082825260208201905092915050565b6000611ac882611583565b611ad28185611aac565b9350611ae281856020860161159f565b611aeb816115c9565b840191505092915050565b611aff81611633565b82525050565b611b0e81611520565b82525050565b611b1d81611663565b82525050565b6000610180830160008301518482036000860152611b418282611abd565b9150506020830151611b566020860182611af6565b5060408301518482036040860152611b6e8282611abd565b91505060608301518482036060860152611b888282611abd565b91505060808301518482036080860152611ba28282611abd565b91505060a083015184820360a0860152611bbc8282611abd565b91505060c083015184820360c0860152611bd68282611abd565b91505060e0830151611beb60e0860182611b05565b50610100830151611c00610100860182611b14565b50610120830151611c15610120860182611b14565b50610140830151611c2a610140860182611b14565b50610160830151611c3f610160860182611b14565b508091505092915050565b6000611c568383611b23565b905092915050565b6000602082019050919050565b6000611c7682611a80565b611c808185611a8b565b935083602082028501611c9285611a9c565b8060005b85811015611cce5784840389528151611caf8582611c4a565b9450611cba83611c5e565b925060208a01995050600181019050611c96565b50829750879550505050505092915050565b60006020820190508181036000830152611cfa8184611c6b565b905092915050565b7f4e487b7100000000000000000000000000000000000000000000000000000000600052602260045260246000fd5b60006002820490506001821680611d4957607f821691505b602082108103611d5c57611d5b611d02565b5b50919050565b7f4e6f7420746865206f776e657200000000000000000000000000000000000000600082015250565b6000611d98600d8361158e565b9150611da382611d62565b602082019050919050565b60006020820190508181036000830152611dc781611d8b565b9050919050565b60008190508160005260206000209050919050565b60006020601f8301049050919050565b600082821b905092915050565b600060088302611e307fffffffffffffffffffffffffffffffffffffffffffffffffffffffffffffffff82611df3565b611e3a8683611df3565b95508019841693508086168417925050509392505050565b6000819050919050565b6000611e77611e72611e6d84611520565b611e52565b611520565b9050919050565b6000819050919050565b611e9183611e5c565b611ea5611e9d82611e7e565b848454611e00565b825550505050565b600090565b611eba611ead565b611ec5818484611e88565b505050565b5b81811015611ee957611ede600082611eb2565b600181019050611ecb565b5050565b601f821115611f2e57611eff81611dce565b611f0884611de3565b81016020851015611f17578190505b611f2b611f2385611de3565b830182611eca565b50505b505050565b600082821c905092915050565b6000611f5160001984600802611f33565b1980831691505092915050565b6000611f6a8383611f40565b9150826002028217905092915050565b611f8382611583565b67ffffffffffffffff811115611f9c57611f9b611820565b5b611fa68254611d31565b611fb1828285611eed565b600060209050601f831160018114611fe45760008415611fd2578287015190505b611fdc8582611f5e565b865550612044565b601f198416611ff286611dce565b60005b8281101561201a57848901518255600182019150602085019450602081019050611ff5565b868310156120375784890151612033601f891682611f40565b8355505b6001600288020188555050505b505050505050565b600060e0820190508181036000830152612066818a6115da565b90506120756020830189611645565b818103604083015261208781886115da565b9050818103606083015261209b81876115da565b905081810360808301526120af81866115da565b905081810360a08301526120c381856115da565b905081810360c08301526120d781846115da565b905098975050505050505050565b7f4e487b7100000000000000000000000000000000000000000000000000000000600052601160045260246000fd5b600061211f82611520565b91507fffffffffffffffffffffffffffffffffffffffffffffffffffffffffffffffff8203612151576121506120e5565b5b600182019050919050565b7f496e76616c69642063656c656220494400000000000000000000000000000000600082015250565b600061219260108361158e565b915061219d8261215c565b602082019050919050565b600060208201905081810360008301526121c181612185565b9050919050565b7f4f776e65722063616e2774207061792066656500000000000000000000000000600082015250565b60006121fe60138361158e565b9150612209826121c8565b602082019050919050565b6000602082019050818103600083015261222d816121f1565b9050919050565b7f496e636f72726563742066656520616d6f756e74000000000000000000000000600082015250565b600061226a60148361158e565b915061227582612234565b602082019050919050565b600060208201905081810360008301526122998161225d565b9050919050565b60006122ab82611520565b91506122b683611520565b92508282019050808211156122ce576122cd6120e5565b5b92915050565b7f5265656e7472616e637947756172643a207265656e7472616e742063616c6c00600082015250565b600061230a601f8361158e565b9150612315826122d4565b602082019050919050565b60006020820190508181036000830152612339816122fd565b905091905056fea2646970667358221220cbde3f48c74cbc269e073657f2f001cbc9b703db4b50d3c72db7e59091fc867f64736f6c63430008180033",
  "linkReferences": {},
  "deployedLinkReferences": {}
}