{
  "_format": "hh-sol-artifact-1",
  "contractName": "Insurance",
  "sourceName": "contracts/Insurance.sol",
  "abi": [
    {
      "inputs": [
        {
          "internalType": "address",
          "name": "_priceFeed",
          "type": "address"
        }
      ],
      "stateMutability": "nonpayable",
      "type": "constructor"
    },
    {
      "inputs": [],
      "name": "cancelPolicy",
      "outputs": [],
      "stateMutability": "nonpayable",
      "type": "function"
    },
    {
      "inputs": [],
      "name": "claim",
      "outputs": [],
      "stateMutability": "nonpayable",
      "type": "function"
    },
    {
      "inputs": [],
      "name": "claimPeriod",
      "outputs": [
        {
          "internalType": "uint256",
          "name": "",
          "type": "uint256"
        }
      ],
      "stateMutability": "view",
      "type": "function"
    },
    {
      "inputs": [
        {
          "internalType": "uint256",
          "name": "_initialInvestment",
          "type": "uint256"
        },
        {
          "internalType": "uint256",
          "name": "_thresholdPrice",
          "type": "uint256"
        }
      ],
      "name": "createPolicy",
      "outputs": [],
      "stateMutability": "payable",
      "type": "function"
    },
    {
      "inputs": [],
      "name": "getLatestPrice",
      "outputs": [
        {
          "internalType": "int256",
          "name": "",
          "type": "int256"
        }
      ],
      "stateMutability": "view",
      "type": "function"
    },
    {
      "inputs": [],
      "name": "payPremium",
      "outputs": [],
      "stateMutability": "payable",
      "type": "function"
    },
    {
      "inputs": [
        {
          "internalType": "address",
          "name": "",
          "type": "address"
        }
      ],
      "name": "policies",
      "outputs": [
        {
          "internalType": "address",
          "name": "policyHolder",
          "type": "address"
        },
        {
          "internalType": "uint256",
          "name": "initialInvestment",
          "type": "uint256"
        },
        {
          "internalType": "uint256",
          "name": "thresholdPrice",
          "type": "uint256"
        },
        {
          "internalType": "uint256",
          "name": "totalPremiumPaid",
          "type": "uint256"
        },
        {
          "internalType": "uint256",
          "name": "startTime",
          "type": "uint256"
        },
        {
          "internalType": "bool",
          "name": "isActive",
          "type": "bool"
        }
      ],
      "stateMutability": "view",
      "type": "function"
    },
    {
      "inputs": [],
      "name": "premiumRate",
      "outputs": [
        {
          "internalType": "uint256",
          "name": "",
          "type": "uint256"
        }
      ],
      "stateMutability": "view",
      "type": "function"
    },
    {
      "stateMutability": "payable",
      "type": "receive"
    }
  ],
  "bytecode": "0x6080604052600160025562278d006003553480156200001d57600080fd5b50604051620010cd380380620010cd8339818101604052810190620000439190620000f5565b80600160006101000a81548173ffffffffffffffffffffffffffffffffffffffff021916908373ffffffffffffffffffffffffffffffffffffffff1602179055505062000127565b600080fd5b600073ffffffffffffffffffffffffffffffffffffffff82169050919050565b6000620000bd8262000090565b9050919050565b620000cf81620000b0565b8114620000db57600080fd5b50565b600081519050620000ef81620000c4565b92915050565b6000602082840312156200010e576200010d6200008b565b5b60006200011e84828501620000de565b91505092915050565b610f9680620001376000396000f3fe60806040526004361061007f5760003560e01c80635d0040d31161004e5780635d0040d3146101055780637dc2cd98146101305780638e15f4731461015b578063c7e2f28e1461018657610086565b806320e986981461008b57806329c08ba2146100cd5780634e71d92d146100d75780634ef2cc00146100ee57610086565b3661008657005b600080fd5b34801561009757600080fd5b506100b260048036038101906100ad919061093a565b6101a2565b6040516100c4969594939291906109aa565b60405180910390f35b6100d561020b565b005b3480156100e357600080fd5b506100ec61031c565b005b3480156100fa57600080fd5b506101036104ee565b005b34801561011157600080fd5b5061011a610610565b6040516101279190610a0b565b60405180910390f35b34801561013c57600080fd5b50610145610616565b6040516101529190610a0b565b60405180910390f35b34801561016757600080fd5b5061017061061c565b60405161017d9190610a3f565b60405180910390f35b6101a0600480360381019061019b9190610a86565b6106cc565b005b60006020528060005260406000206000915090508060000160009054906101000a900473ffffffffffffffffffffffffffffffffffffffff16908060010154908060020154908060030154908060040154908060050160009054906101000a900460ff16905086565b60008060003373ffffffffffffffffffffffffffffffffffffffff1673ffffffffffffffffffffffffffffffffffffffff16815260200190815260200160002090508060050160009054906101000a900460ff1661029e576040517f08c379a000000000000000000000000000000000000000000000000000000000815260040161029590610b23565b60405180910390fd5b606460025482600101546102b29190610b72565b6102bc9190610be3565b3410156102fe576040517f08c379a00000000000000000000000000000000000000000000000000000000081526004016102f590610c60565b60405180910390fd5b348160030160008282546103129190610c80565b9250508190555050565b60008060003373ffffffffffffffffffffffffffffffffffffffff1673ffffffffffffffffffffffffffffffffffffffff16815260200190815260200160002090508060050160009054906101000a900460ff166103af576040517f08c379a00000000000000000000000000000000000000000000000000000000081526004016103a690610b23565b60405180910390fd5b60035481600401546103c19190610c80565b421115610403576040517f08c379a00000000000000000000000000000000000000000000000000000000081526004016103fa90610d00565b60405180910390fd5b806002015461041061061c565b12610450576040517f08c379a000000000000000000000000000000000000000000000000000000000815260040161044790610d6c565b60405180910390fd5b60008160050160006101000a81548160ff0219169083151502179055508060000160009054906101000a900473ffffffffffffffffffffffffffffffffffffffff1673ffffffffffffffffffffffffffffffffffffffff166108fc826003015483600101546104bf9190610c80565b9081150290604051600060405180830381858888f193505050501580156104ea573d6000803e3d6000fd5b5050565b60008060003373ffffffffffffffffffffffffffffffffffffffff1673ffffffffffffffffffffffffffffffffffffffff16815260200190815260200160002090508060050160009054906101000a900460ff16610581576040517f08c379a000000000000000000000000000000000000000000000000000000000815260040161057890610b23565b60405180910390fd5b60008160050160006101000a81548160ff0219169083151502179055508060000160009054906101000a900473ffffffffffffffffffffffffffffffffffffffff1673ffffffffffffffffffffffffffffffffffffffff166108fc82600301549081150290604051600060405180830381858888f1935050505015801561060c573d6000803e3d6000fd5b5050565b60025481565b60035481565b600080600160009054906101000a900473ffffffffffffffffffffffffffffffffffffffff1673ffffffffffffffffffffffffffffffffffffffff1663feaf968c6040518163ffffffff1660e01b815260040160a060405180830381865afa15801561068c573d6000803e3d6000fd5b505050506040513d601f19601f820116820180604052508101906106b09190610e0f565b5050509150506305f5e100816106c69190610e8a565b91505090565b600015156000803373ffffffffffffffffffffffffffffffffffffffff1673ffffffffffffffffffffffffffffffffffffffff16815260200190815260200160002060050160009054906101000a900460ff16151514610761576040517f08c379a000000000000000000000000000000000000000000000000000000000815260040161075890610f40565b60405180910390fd5b6064600254836107719190610b72565b61077b9190610be3565b3410156107bd576040517f08c379a00000000000000000000000000000000000000000000000000000000081526004016107b490610c60565b60405180910390fd5b6040518060c001604052803373ffffffffffffffffffffffffffffffffffffffff168152602001838152602001828152602001348152602001428152602001600115158152506000803373ffffffffffffffffffffffffffffffffffffffff1673ffffffffffffffffffffffffffffffffffffffff16815260200190815260200160002060008201518160000160006101000a81548173ffffffffffffffffffffffffffffffffffffffff021916908373ffffffffffffffffffffffffffffffffffffffff1602179055506020820151816001015560408201518160020155606082015181600301556080820151816004015560a08201518160050160006101000a81548160ff0219169083151502179055509050505050565b600080fd5b600073ffffffffffffffffffffffffffffffffffffffff82169050919050565b6000610907826108dc565b9050919050565b610917816108fc565b811461092257600080fd5b50565b6000813590506109348161090e565b92915050565b6000602082840312156109505761094f6108d7565b5b600061095e84828501610925565b91505092915050565b610970816108fc565b82525050565b6000819050919050565b61098981610976565b82525050565b60008115159050919050565b6109a48161098f565b82525050565b600060c0820190506109bf6000830189610967565b6109cc6020830188610980565b6109d96040830187610980565b6109e66060830186610980565b6109f36080830185610980565b610a0060a083018461099b565b979650505050505050565b6000602082019050610a206000830184610980565b92915050565b6000819050919050565b610a3981610a26565b82525050565b6000602082019050610a546000830184610a30565b92915050565b610a6381610976565b8114610a6e57600080fd5b50565b600081359050610a8081610a5a565b92915050565b60008060408385031215610a9d57610a9c6108d7565b5b6000610aab85828601610a71565b9250506020610abc85828601610a71565b9150509250929050565b600082825260208201905092915050565b7f4e6f2061637469766520706f6c69637900000000000000000000000000000000600082015250565b6000610b0d601083610ac6565b9150610b1882610ad7565b602082019050919050565b60006020820190508181036000830152610b3c81610b00565b9050919050565b7f4e487b7100000000000000000000000000000000000000000000000000000000600052601160045260246000fd5b6000610b7d82610976565b9150610b8883610976565b9250828202610b9681610976565b91508282048414831517610bad57610bac610b43565b5b5092915050565b7f4e487b7100000000000000000000000000000000000000000000000000000000600052601260045260246000fd5b6000610bee82610976565b9150610bf983610976565b925082610c0957610c08610bb4565b5b828204905092915050565b7f496e73756666696369656e74207072656d69756d000000000000000000000000600082015250565b6000610c4a601483610ac6565b9150610c5582610c14565b602082019050919050565b60006020820190508181036000830152610c7981610c3d565b9050919050565b6000610c8b82610976565b9150610c9683610976565b9250828201905080821115610cae57610cad610b43565b5b92915050565b7f436c61696d20706572696f642065787069726564000000000000000000000000600082015250565b6000610cea601483610ac6565b9150610cf582610cb4565b602082019050919050565b60006020820190508181036000830152610d1981610cdd565b9050919050565b7f4554482070726963652061626f7665207468726573686f6c6400000000000000600082015250565b6000610d56601983610ac6565b9150610d6182610d20565b602082019050919050565b60006020820190508181036000830152610d8581610d49565b9050919050565b600069ffffffffffffffffffff82169050919050565b610dab81610d8c565b8114610db657600080fd5b50565b600081519050610dc881610da2565b92915050565b610dd781610a26565b8114610de257600080fd5b50565b600081519050610df481610dce565b92915050565b600081519050610e0981610a5a565b92915050565b600080600080600060a08688031215610e2b57610e2a6108d7565b5b6000610e3988828901610db9565b9550506020610e4a88828901610de5565b9450506040610e5b88828901610dfa565b9350506060610e6c88828901610dfa565b9250506080610e7d88828901610db9565b9150509295509295909350565b6000610e9582610a26565b9150610ea083610a26565b925082610eb057610eaf610bb4565b5b600160000383147f800000000000000000000000000000000000000000000000000000000000000083141615610ee957610ee8610b43565b5b828205905092915050565b7f506f6c69637920616c7265616479206578697374730000000000000000000000600082015250565b6000610f2a601583610ac6565b9150610f3582610ef4565b602082019050919050565b60006020820190508181036000830152610f5981610f1d565b905091905056fea2646970667358221220be61f605f50d36c0bf4471e0d3a6e805d2c0583fc761ab9f0142636d86aeb16c64736f6c63430008180033",
  "linkReferences": {},
  "deployedLinkReferences": {}
}